:020000040800F2
:10000000E0080020E1020008E9020008EB02000815
:10001000ED020008EF020008F102000800000000F5
:10002000000000000000000000000000F3020008D3
:10003000F502000800000000F7020008513800082F
:10004000FB020008FB020008FB020008FB0200089C
:10005000FB020008FB020008FB020008FB0200088C
:10006000FB020008FB020008FB020008FB0200087C
:1000700061500008FB020008FB020008FB020008B8
:10008000FB020008FB020008FB020008FB0200085C
:100090000D520008FB020008FB020008FB020008EA
:1000A00063380008D7680008FB020008FB0200085C
:1000B000FB020008FB0200081D580008FB020008B4
:1000C000FB020008FB020008FB020008FB0200081C
:1000D000FB020008FB020008FB020008174F0008A3
:1000E000FB020008FB020008FB020008DFF80CD04E
:1000F00007F0E8FA0048004761360008E0080020F1
:100100000CB50020019000906C48006840F48030ED
:100110006A49086000BF6948006800F40030009038
:100120000198401C0190009818B90198B0F5A06F93
:10013000F1D16248006800F4003010B10120009055
:1001400001E0002000900098012843D15C4800683D
:1001500040F010005A4908600846006820F003008B
:1001600008600846006840F0020008605348406894
:10017000524948600846406848600846406840F474
:10018000806048600846406820F47C10486008465B
:10019000406840F4E81048600846006840F080700D
:1001A000086000BF4548006800F000700028F9D0E2
:1001B0004248406820F003004049486008464068D3
:1001C00040F00200486000BF3C48406800F00C006E
:1001D0000828F9D10CBD10B5FFF792FF10BD10B57E
:1001E0003648006840F0010034490860084640681D
:1001F000344908403149486008460068324908409F
:100200002E4908600846006820F4802008600846EF
:10021000406820F4FE0048604FF41F008860FFF73C
:10022000DAFF4FF000602949086010BD10B50021C9
:1002300000200022214B5B6803F00C0121B104294E
:1002400006D0082928D107E0214B224C236027E063
:100250001F4B204C236023E0184B5B6803F47010A5
:10026000164B5B6803F48032022303EB904022B903
:10027000194B4343174C23600DE0104B5B6803F4AC
:10028000003323B1144B4343124C236003E0104B63
:100290004343104C236003E00D4B0E4C236000BF22
:1002A00000BF064B5B68C3F303130C4CE15C094BC6
:1002B0001B68CB40074C236010BD000000100240BB
:1002C000002002400000FFF8FFFFF6FE08ED00E00E
:1002D00000127A000000002000093D000400002008
:1002E0000648804706480047FEE7FEE7FEE7FEE7D0
:1002F000FEE7FEE7FEE7FEE7FEE7FEE7DF010008B8
:10030000ED00000831490143314A1160704770B572
:10031000002100230F22C47804B32D4C246804F478
:10032000E064C4F5E064210AC1F10403CA404478E2
:1003300004FA03F18478144021430901254C06781E
:10034000A155047804F01F050124AC4005786D1117
:10035000AD0005F1E025C5F8004109E0047804F09E
:100360001F050124AC401C4D0678761145F8264047
:1003700070BD1A4A0A400243154B1B1F1A60704792
:1003800039B1134A121D12680243114B1B1D1A602A
:1003900006E00F4A121D126882430D4B1B1D1A60A6
:1003A0007047042808D14FF0E021096941F00401A9
:1003B0004FF0E022116107E04FF0E021096921F0E0
:1003C00004014FF0E0221161704700000000FA05BF
:1003D0000CED00E000E400E080E100E080FFFF1FA2
:1003E00010B50446FA48844208D10121401501F0B5
:1003F00055FE0021601501F051FE17E0F5488442DA
:1004000008D10121001501F049FE0021201501F05D
:1004100045FE0BE0F048844208D10121C80301F0F9
:100420003DFE00214FF4004001F038FE10BD30B514
:100430000246002000235068E84C20400D790C68EB
:1004400044EA0524204350609068E54C2040D1E9FF
:1004500002542C434D7944EA450420439060D06A0D
:1004600020F470000C7C641EE4B2234340EA035085
:10047000D06230BD00210160017141718160C160B5
:1004800001210174704721B1826842F0010282604B
:1004900003E0826822F001028260704721B1826825
:1004A00042F48072826003E0826822F4807282608B
:1004B000704710B50023CBB21AB144681C434460A6
:1004C00002E044689C43446010BD816841F008012B
:1004D00081607047014600208A6802F008020AB174
:1004E000012000E000207047816841F00401816034
:1004F0007047014600208A6802F004020AB1012018
:1005000000E00020704721B1826842F4A0028260BE
:1005100003E0826822F4A002826070470146002056
:100520008A6802F480020AB1012000E000207047CE
:1005300010B50A4600210023416821F46041531E92
:1005400041EA4331416010BD21B1426842F400628A
:10055000426003E0426822F4006242607047F0B5F6
:1005600004460D4600200021092D11DDE068A5F1AB
:100570000A0606EB4607072606FA07F18843A5F1A7
:100580000A0606EB460603FA06F10843E0600CE0B3
:10059000206905EB4507072606FA07F1884305EBB6
:1005A000450603FA06F108432061072A0FDA606B5B
:1005B000561E06EB86071F2606FA07F18843561ECD
:1005C00006EB860605FA06F10843606322E00D2A71
:1005D0000FDA206BD61F06EB86071F2606FA07F1F7
:1005E0008843D61F06EB860605FA06F1084320630A
:1005F00010E0E06AA2F10D0606EB86071F2606FA58
:1006000007F18843A2F10D0606EB860605FA06F10E
:100610000843E062F0BD21B1826842F4801282603A
:1006200003E0826822F48012826070470146C86C41
:1006300080B2704766484C300068704721B142680C
:1006400042F48062426003E0426822F480624260C9
:10065000704721B1426842F48052426003E0426830
:1006600022F48052426070470A460021816821F4DA
:10067000E04111438160704721B1826842F4004239
:10068000826003E0826822F400428260704721B1F8
:10069000826842F40212826003E0826822F402124D
:1006A00082607047014600208A6802F400120AB195
:1006B000012000E000207047F0B5044615460020F8
:1006C00000220026092911DDE068A1F10A0707EBE5
:1006D000470C072707FA0CF29043A1F10A0707EB32
:1006E000470703FA07F21043E0600CE0206901EBD2
:1006F000410C072707FA0CF2904301EB410703FA7C
:1007000007F210432061A06BC0F30156EF1C06F105
:10071000010CA7EB0C0707EB870C1F2707FA0CF25D
:100720009043EF1C06F1010CA7EB0C0707EB8707C2
:1007300001FA07F21043A063F0BD10B50A4600218C
:100740000023816B21F44011531E41EA0351816360
:1007500010BD08B5002300930090009B0B4400934C
:10076000009B1A6008BD08B5024600200090009268
:1007700001F12800009B184400900098006880B2A6
:1007800008BD0A4600214168164B194011434160DB
:1007900070474162826270470A460021416821F039
:1007A0001F0111434160704740B109490831096890
:1007B00041F40001064A0832116007E0044908319B
:1007C000096821F40001024A0832116070470000F4
:1007D0000024014000280140003C0140FFFEF0FFE2
:1007E000FDF7F1FFFFFD3FFF0246002013680B40BD
:1007F0000BB1012000E000207047CA43026070473F
:1008000070B502460020002300240B125568CEB2BA
:1008100005EA060415681D4015B10CB1012000E081
:10082000002070BD00220A12D3430360704700000D
:1008300010B50446FE48844209D10121480601F062
:100840003AFC00214FF0007001F035FC08E0012176
:10085000880601F030FC00214FF0806001F02BFC95
:1008600010BD30B5024600200023146824F00204B5
:100870001460146844F00104146000E05B1C5468C8
:1008800004F001041CB94FF6FF74A342F6D154687A
:1008900004F001040CB900206CE08C79012C04D127
:1008A000146844F08004146003E0146824F08004A9
:1008B0001460CC79012C04D1146844F04004146015
:1008C00003E0146824F0400414600C7A012C04D175
:1008D000146844F02004146003E0146824F0200439
:1008E00014604C7A012C04D1146844F01004146094
:1008F00003E0146824F0100414608C7A012C04D1F5
:10090000146844F00804146003E0146824F0080438
:100910001460CC7A012C04D1146844F004041460EF
:1009200003E0146824F0040414608C78A407CD78E4
:1009300044EA05640D7944EA05444D7944EA0554D6
:100940000D886D1E2C43D461146824F001041460DA
:10095000002300E05B1C546804F001041CB14FF656
:10096000FF74A342F6D1546804F001040CB10020D6
:1009700000E0012030BD10B50021837A012202FA87
:1009800003F1AC4A126842F00102AA4B1A60A94A6C
:100990001C3212688A43A74B1C331A60027BCAB907
:1009A000A44A0C3212688A43A24B0C331A60428864
:1009B000C38842EA03439F4A4032847A42F8343083
:1009C0000288838842EA03439A4A4032847A02EBDF
:1009D000C4025360027B012A19D1964A0C32126874
:1009E0000A43944B0C331A604288038842EA03435B
:1009F000904A4032847A42F83430C288838842EA8E
:100A000003438C4A4032847A02EBC4025360C27AB8
:100A10003AB9884A121D12688A43864B1B1D1A6018
:100A200006E0844A121D12680A43824B1B1D1A609D
:100A3000028932B97F4A143212688A437D4B1433DB
:100A40001A600289012A06D17A4A143212680A43CE
:100A5000784B14331A60427B012A06D1754A1C3246
:100A600012680A43734B1C331A60724A126822F0F0
:100A70000102704B1A6010BD00218171C1710172B9
:100A800041728172C1728170C170032101710221B2
:100A900041710121018070476649096841F00101F7
:100AA000644A11601146096843F60E729143614A27
:100AB00011601146096841EA002111601146096878
:100AC00021F001011160704721B1026842F48032C7
:100AD000026003E0026822F4803202607047E1B1F4
:100AE000026842F0800202604FF4C272125842F46F
:100AF00080734FF4C27213504FF4CA72125842F40A
:100B000080734FF4CA7213504FF4D272125842F4E9
:100B100080734FF4D27213501BE0026822F08002FF
:100B200002604FF4C272125822F480734FF4C27202
:100B300013504FF4CA72125822F480734FF4CA72E1
:100B400013504FF4D272125822F480734FF4D272C1
:100B50001350704710B502460020936803F080637D
:100B6000B3F1806F00D110E0936803F00063B3F13C
:100B7000006F01D1012008E0936803F08053B3F1C6
:100B8000805F01D1022000E00420042879D002F522
:100B9000C07303EB00131B6803F0010402F5C0737C
:100BA00003EB00131C600B7A7BB94B7A0C8843EA89
:100BB000445302F5C07404EB00142468234302F587
:100BC000C07404EB0014236010E00B7A4C6843EA15
:100BD000C4034C7A234302F5C07404EB0014246868
:100BE000234302F5C07404EB001423608B7A03F0F6
:100BF0000F038B7202F5C07303EB00135B6823F0E5
:100C00000F0402F5C07303EB00135C6002F5C073C0
:100C100003EB00135B688C7A234302F5C07404EB8A
:100C2000001463608B7B1C064B7B44EA034403E0A7
:100C300000640040006600400B7B44EA0323CC7A4A
:100C4000234302F5C07404EB0014A3608B7C1C06E4
:100C50004B7C44EA03440B7C44EA0323CC7B2343D0
:100C600002F5C07404EB0014E36002F5C07303EBFB
:100C700000131B6843F0010402F5C07303EB00137B
:100C80001C6010BD10B50246002321B1012907D018
:100C900002290FD109E09068F94C00EA04030BE047
:100CA0009068F84C00EA040306E09068F64C00EA0D
:100CB000040301E0002300BF00BFF44C181BA34253
:100CC00016D007DC83B16FF08060184470B1022841
:100CD00018D111E0B0F5007F10D0ED4C204448B1A0
:100CE000B0F5003F0ED10BE002230DE000230BE036
:100CF000002309E0002307E0012305E0012303E0CE
:100D0000012301E0002300BF00BFD8B210BD21B114
:100D1000012907D002290FD109E0826842F0800240
:100D200082600AE0826842F40042826005E08268E4
:100D300042F40002826000E000BF00BF704710B5BF
:100D400000F5D87303EB01131B6803F0040313725F
:100D5000137A53B900F5D87303EB01131B6840F203
:100D6000FF7404EA5353136009E000F5D87303EBF2
:100D700001131B686FF0604404EAD303536000F56D
:100D8000D87303EB01131B6803F00203537200F5E1
:100D9000D87303EB01135B6803F00F03937200F544
:100DA000D87303EB01135B681B0AD37400F5D87387
:100DB00003EB01139B68D37200F5D87303EB0113A7
:100DC0009B681C0A147300F5D87303EB01139B682E
:100DD0001C0C547300F5D87303EB01139B681B0EB6
:100DE000937300F5D87303EB0113DB68D37300F53D
:100DF000D87303EB0113DB681C0A147400F5D87375
:100E000003EB0113DB681C0C547400F5D87303EB7F
:100E10000113DB681B0E937421B9C36843F02003F0
:100E2000C36003E0036943F02003036110BD21B9EF
:100E3000C26842F02002C26003E0026942F0200270
:100E4000026170470246002019B9D36803F003001D
:100E500006E0012903D1136903F0030000E000203C
:100E6000704710B502460B4600204FF6FF71BBB924
:100E7000146824F0020444F00104146000E0491EE8
:100E8000546804F00304012C01D00029F7D1546800
:100E900004F00304012C01D0002032E0012030E0F6
:100EA000012B13D1146824F00304146000E0491EE0
:100EB000546804F003040CB10029F8D1546804F01C
:100EC00003040CB100201CE001201AE0022B17D112
:100ED000146824F0010444F00204146000E0491E88
:100EE000546804F00304022C01D00029F7D154689F
:100EF00004F00304022C01D0002002E0012000E0F5
:100F0000002010BD014600200A6822F0010242F0D4
:100F100002020A604A6802F00302022A00D101209C
:100F2000704701464FF6FF7200200B6823F0020362
:100F30000B6000E0521E4B6803F00203022B01D14C
:100F4000002AF7D14B6803F00203022B00D00120E6
:100F50007047014600208A6902F070007047014620
:100F600000208A69100E7047014600208A69C2F38A
:100F7000074070471AB143690B43436102E043697C
:100F80008B434361704710B50246002001F47003A3
:100F900043B19369C1F3130423400BB101202DE049
:100FA00000202BE001F0807343B15368C1F31304B8
:100FB00023400BB1012021E000201FE001F000637D
:100FC00043B19368C1F3130423400BB1012015E032
:100FD000002013E001F0007343B1D368C1F31304A0
:100FE00023400BB1012009E0002007E01369C1F3A1
:100FF000130423400BB1012000E0002010BD0022AB
:10100000244B994202D10023836111E0C1F3130202
:1010100001F000730BB1C2600AE001F080630BB114
:10102000026105E001F000630BB1826000E0426004
:1010300070470246002002EA01030BB1012000E0E4
:101040000020704770B504460D46002660692840B0
:10105000002872D0B5F5807F69D01DDC082D42D004
:1010600006DC012D2DD0022D31D0042D7FD134E0AE
:10107000102D3ED0202D42D0402D78D145E00000EB
:101080000300000400030008000003100001000832
:101090000001FFF77000F030B5F5004F61D009DCBA
:1010A000B5F5007F4AD0B5F5806F4DD0B5F5006F2E
:1010B0005DD150E0B5F5803F2DD0B5F5003F56D15C
:1010C0002FE0A0685549FFF7B4FF064651E0E068FD
:1010D0000321FFF7AEFF06464BE0E0680821FFF76B
:1010E000A8FF064645E0E0681021FFF7A2FF06468C
:1010F0003FE020690321FFF79CFF064639E02069A5
:101100000821FFF796FF064633E020691021FFF71C
:1011100090FF06462DE060680821FFF78AFF06462B
:1011200027E060681021FFF784FF064621E0A069F0
:101130000121FFF77EFF06461BE01BE0A0690221AC
:10114000FFF777FF064614E0A0690421FFF771FF5F
:1011500006460EE00BE0A0697021FFF76AFF064625
:1011600007E060680421FFF764FF064601E00026FF
:1011700000BF00E00026304670BDB1F5007F3AD0D8
:101180000FDC202928D006DC01291CD004291DD021
:10119000082940D11DE0402921D0B1F5807F3AD106
:1011A00026E0B1F5004F31D006DCB1F5806F25D0D7
:1011B000B1F5006F2FD124E0B1F5803F12D0B1F529
:1011C000003F28D111E0154A826025E00822C26064
:1011D00022E01022C2601FE0082202611CE01022FF
:1011E000026119E00822426016E01022426013E01A
:1011F0000422426010E0042242600DE004224260BA
:101200000AE0002282610422426005E0002282613D
:101210000422426000E000BF00BF704701010100EE
:1012200001684FF6FE7211400160002101604160CB
:101230008160C1608D49884208D18C49083949686C
:1012400041F00F01894A083A51608AE08749143118
:10125000884208D185490839496841F0F001834A3C
:10126000083A51607DE081492831884208D17F49A0
:101270000839496841F470617C4A083A516070E06D
:101280007A493C31884208D178490839496841F4A3
:101290007041764A083A516063E07449503188429F
:1012A00008D172490839496841F470216F4A083AF7
:1012B000516056E06D496431884208D16B49083964
:1012C000496841F47001694A083A516049E0674948
:1012D0007831884208D165490839496841F0706120
:1012E000624A083A51603CE06149884206D1011FD8
:1012F000096841F00F01021F116032E05C491431AE
:10130000884208D15A49091F096841F0F001584A3A
:10131000121F116025E056492831884208D15449EE
:10132000091F096841F47061514A121F116018E0E9
:101330004F493C31884208D14D49091F096841F4A1
:1013400070414B4A121F11600BE0494950318842ED
:1013500007D14749091F096841F47021444A121F07
:101360001160704710B50022026847F6F0739A4387
:101370000C6A8B6823430C6923434C6923438C69B3
:101380002343CC6923434C6A23438C6A23431A4387
:101390000260CB6843600B6883604B68C36010BD1C
:1013A0000021016041608160C16001614161816132
:1013B000C161016241628162704721B1026842F0FD
:1013C0000102026004E002684FF6FE731A400260F8
:1013D00070471AB103680B43036002E003688B4354
:1013E00003607047416070470146486880B27047AB
:1013F00001460020002201F080531BB11C4B083B2A
:101400001A6802E0194B083B1A6802EA01030BB1A3
:10141000012000E00020704700F0805119B114490C
:10142000091F086002E01149083948607047014609
:101430000020002201F080531BB10D4B083B1A68BD
:1014400002E00A4B083B1A6802EA01030BB10120D3
:1014500000E00020704700F0805119B10449091FD5
:10146000086002E0014908394860704708000240FE
:101470000804024001460020FE4A106800F03800CF
:10148000084310607047FB49096821F00801F94AD8
:10149000116011460968014311607047F5490968F8
:1014A00021F01001F34A11601146096801431160EF
:1014B0007047F148EF494860F04848607047EE488F
:1014C000EC494860ED4848607047EA48006940F0E0
:1014D0008000E84908617047E648006940F08000F4
:1014E000E449086170470420E249C96801F001013C
:1014F00009B101200EE0DF49C96801F0040109B11A
:10150000022007E0DB49C96801F0100109B103209E
:1015100000E00420704700B502460423FFF7E3FF14
:10152000034603E0FFF7DFFF0346521E012B01D104
:10153000002AF7D102B90523184600BD30B504468C
:1015400004254FF43020FFF7E6FF0546042D17D1A0
:10155000C848006940F00200C64908610846446175
:10156000006940F0400008614FF43020FFF7D3FFDE
:101570000546C048006941F6FD710840BD49086153
:10158000284630BD10B504244FF43020FFF7C3FFC8
:101590000446042C16D1B748006940F00400B54950
:1015A00008610846006940F0400008614FF43020AF
:1015B000FFF7B1FF0446AF48006941F6FB710840F0
:1015C000AC490861204610BD00B502460423FFF770
:1015D0008AFF034603E0FFF786FF0346521E012BF6
:1015E00001D1002AF7D102B90523184600BD10B574
:1015F00004244FF43020FFF7E7FF0446042C16D1F3
:101600009C48006940F004009A4908610846006956
:1016100040F0400008614FF43020FFF7D5FF04464A
:101620009448006941F6FB710840924908612046E0
:1016300010BD00208F49C96901F0020109B10120E4
:1016400000E00020704730B5A5250424FFF7F1FF26
:1016500000B100254FF43020FFF75DFF0446042C55
:101660003AD1854883498860844888600846006983
:1016700040F0200008610846006940F04000086121
:101680004FF43020FFF747FF0446042C1BD1794864
:10169000006941F6DF710840764908610846006933
:1016A00040F01000086176480580E002FFF733FF44
:1016B0000446052C10D06F48006941F6EF710840D0
:1016C0006C49086108E0052C06D06A48006941F6BB
:1016D000EF71084067490861204630BD78B506467D
:1016E0000C46042500200090E802FFF714FF054691
:1016F000042D24D15F48006940F001005D49086174
:101700003480E802FFF707FF0546042D10D1B01C16
:101710000090200C00990880E802FFF7FCFE0546C7
:101720005448006941F6FE7108405249086106E0DC
:101730005048006941F6FE7108404E49086128464C
:1017400078BD70B504460D460426F002FFF7E3FEAF
:101750000646042E11D14748006940F00100454972
:1017600008612580F002FFF7D6FE06464148006971
:1017700041F6FE7108403F490861304670BD70B5C2
:1017800005460E460424E002FFF7C5FE0446042C7D
:1017900017D1394837498860384888600846006959
:1017A00040F0100008612E80E002FFF7B4FE04460E
:1017B000052C06D02F48006941F6EF7108402D49ED
:1017C0000861204670BD2DE9F04304464FF6FF76D0
:1017D0003746B046B1460425E443E6B2C4F30727D2
:1017E000C4F307484FEA1469E802FFF794FE054680
:1017F000042D49D120481F49886020488860084648
:10180000006940F010000861FF2E06D01C48083027
:101810000680E802FFF77FFE0546042D08D1FF2F62
:1018200006D017480A300780E802FFF774FE054625
:10183000042D0AD1B8F1FF0F07D011480C30A0F8E1
:101840000080E802FFF767FE0546042D0AD1B9F1D2
:10185000FF0F07D00A480E30A0F80090E802FFF70B
:101860005AFE0546052D0FD00248006941F6EF717A
:10187000084007E00020024023016745AB89EFCD17
:1018800000F8FF1F664908612846BDE8F08330B5BF
:10189000054604244FF43020FFF73DFE0446042C97
:1018A00041D160485E4988605F48886008460069A9
:1018B00040F0200008610846006940F040000861DF
:1018C0004FF43020FFF727FE0446042C22D1544861
:1018D000006941F6DF710840514908610846006916
:1018E00040F0100008611DB100205049088002E05E
:1018F000A5204E4908804FF43020FFF70CFE044627
:10190000052C10D04648006941F6EF710840444963
:10191000086108E0052C06D04148006941F6DF71F6
:1019200008403F490861204630BDF0B505460E46E7
:10193000174604243B483A4988603B488860E002E7
:10194000FFF7E9FD0446042C19D13548006940F041
:1019500010003349086147F0F80030432843334909
:10196000891C0880E002FFF7D6FD0446052C06D04E
:101970002B48006941F6EF7108402949086120466B
:10198000F0BD2748C069800870472548006A704745
:1019900000202349096801F0200109B1012000E07D
:1019A0000020704729B11E4A126902431C4B1A617C
:1019B00004E01B4A12698243194B1A6170470146C1
:1019C0000020012908D1164AD26902F001020AB1A9
:1019D000012008E0002006E0114AD2680A400AB15E
:1019E000012000E0002070470D49C86070470420C6
:1019F0000B49C96801F0010109B101200EE0084955
:101A0000C96801F0040109B1022007E00449C9686E
:101A100001F0100109B1032000E00420704700002C
:101A20000020024023016745AB89EFCD00F8FF1F7E
:101A300010B50446CC48844208D10121042000F0AE
:101A40002DFB0021042000F029FB46E0C74884421A
:101A500008D10121082000F021FB0021082000F01E
:101A60001DFB3AE0C248844208D10121102000F059
:101A700015FB0021102000F011FB2EE0BD48844230
:101A800008D10121202000F009FB0021202000F0D6
:101A900005FB22E0B848844208D10121402000F033
:101AA000FDFA0021402000F0F9FA16E0B348844224
:101AB00008D10121802000F0F1FA0021802000F0FF
:101AC000EDFA0AE0AE48844207D10121801500F00A
:101AD000E5FA0021A01500F0E1FA10BD10B50121D2
:101AE000084600F0DBFA0021012000F0D7FA10BD13
:101AF0002DE9F041024600250026002000230024A5
:101B0000002791F803C00CF00F0591F803C00CF00A
:101B1000100CBCF1000F03D091F802C04CEA05058F
:101B200091F800C0BCF1000F31D0146800202BE008
:101B30004FF0010C0CFA00F3B1F800C00CEA0306F8
:101B40009E4220D183004FF00F0C0CFA03F7BC43E8
:101B500005FA03FC4CEA040491F803C0BCF1280F19
:101B600006D14FF0010C0CFA00FCC2F814C00AE0D8
:101B700091F803C0BCF1480F05D14FF0010C0CFAED
:101B800000FCC2F810C0401C0828D1D31460B1F882
:101B900000C0BCF1FF0F34DD546800202EE000F1DE
:101BA000080C4FF0010808FA0CF3B1F800C00CEA79
:101BB00003069E4221D183004FF00F0C0CFA03F76D
:101BC000BC4305FA03FC4CEA040491F803C0BCF1E1
:101BD000280F05D100F1080C08FA0CF8C2F814809F
:101BE00091F803C0BCF1480F07D100F1080C4FF089
:101BF000010808FA0CF8C2F81080401C0828CED35F
:101C00005460BDE8F0814FF6FF71018002218170C0
:101C10000421C17070470246002093680B400BB14D
:101C2000012000E0002070470146886880B27047BC
:101C300002460020D3680B400BB1012000E00020D9
:101C400070470146C86880B27047016170474161C2
:101C500070470AB1016100E041617047C16070479F
:101C60004FF480320A4382618161826182698269B4
:101C7000704702460020434B18684FF680731840A7
:101C800040EA021008433F4B186070473E49C86164
:101C90007047F0B50A46002300240021002500F01B
:101CA0000046B6F1004F02D1364EF16901E0354EE3
:101CB0007168C0F3034583B200F44016B6F5401FC7
:101CC00008D121F070612F4E766826F070662D4F96
:101CD0007E6012E000F48016B6F5801F06D1032660
:101CE00006FA05F4A14341F0706106E0460D3601A5
:101CF00003FA06F6B14341F0706122B1460D360198
:101D000003FA06F6314300F00046B6F1004F02D167
:101D10001C4EF16101E01B4E7160F0BD30B5002238
:101D20008B071C0F0F2303FA04F2164B08338C1099
:101D300053F824309343134C08348D1044F8253065
:101D400023468C1053F824308C07240F00FA04F437
:101D500023430C4C08348D1044F8253030BD0A491B
:101D6000DC3108607047000000080140000C0140B1
:101D7000001001400014014000180140001C014007
:101D8000002001400000014000002042DF480068C0
:101D900040F00100DD49086008464068DC49084021
:101DA000DA49486008460068DA490840D7490860BF
:101DB0000846006820F4802008600846406820F447
:101DC000FE0048604FF41F0088607047CF490968E3
:101DD00021F48031CD4A11601146096821F4802137
:101DE0001160B0F5803F03D0B0F5802F0ED106E032
:101DF000C649096841F48031C44A116007E0C3490B
:101E0000096841F4A021C14A116000E000BF00BF91
:101E1000704710B501460022002300204A11012A14
:101E200002D1BA4C236806E0022A02D1B74C236AD9
:101E300001E0B64C636A01F01F02012494401C408B
:101E40000CB1012000E0002010BD38B5002000904A
:101E50000024002500BF3120FFF7DBFF0546009876
:101E6000401C00900098B0F5A06F01D0002DF2D07A
:101E70003120FFF7CEFF08B1012400E00024204606
:101E800038BD01460020A14A106820F0F80040EA61
:101E9000C10010607047A0490860704702460020EA
:101EA0009A4B586820F47C1042EA01031843974B80
:101EB0005860704798490866704701460020934A69
:101EC000506820F003000843506070478F48406816
:101ED00000F00C007047014600208C4A506820F04A
:101EE000F00008435060704701460020874A506860
:101EF00020F4E06008435060704701460020834AA8
:101F0000506820F4605040EAC1005060704729B129
:101F10007E4A527A02437D4B5A7204E07B4A527ADF
:101F200082437A4B5A7270477B49D83108607047B8
:101F300001460020754A506820F440400843506034
:101F400070470021714A20321170704A82F82010C7
:101F5000012802D004280AD104E001216B4A203272
:101F6000117005E00521694A2032117000E000BFC0
:101F700000BF70476949086070476449096A0143B6
:101F8000624A11627047654944390860704730B54C
:101F900000210022002400235C4D6D6805F00C0137
:101FA00021B1042905D0082923D105E05C4D056045
:101FB00022E05B4D05601FE0544D6D6805F4701222
:101FC000524D6D6805F48034022505EB92421CB930
:101FD000544D554305600BE04C4D6D6805F40035DC
:101FE0001DB1504D5543056002E04D4D5543056010
:101FF00002E04B4D056000BF00BF444D6D6805F029
:10200000F0010909484D6B5C0568DD4045603F4DB6
:102010006D6805F4E061090A434D6B5C4568DD407D
:1020200085603A4D6D6805F46051C90A3E4D6B5CA0
:102030004568DD40C560354D6D6805F44041890B4C
:102040003A4D6B5CC568B5FBF3F5056130BD29B150
:102050002E4A526902432D4B5A6104E02B4A5269C1
:1020600082432A4B5A61704729B1284A9269024338
:10207000264B9A6104E0254A92698243234B9A6178
:10208000704729B1214AD2690243204BDA6104E04A
:102090001E4AD26982431D4BDA61704729B11B4A3F
:1020A000D2680243194BDA6004E0184AD2688243CE
:1020B000164BDA60704729B1144A12690243134B78
:1020C0001A6104E0114A12698243104B1A61704789
:1020D00012494039086070470F49C86470470B497E
:1020E000C87170470948406A40F0807007494862EB
:1020F000704701460020054A92680A400AB1012053
:1021000000E00020704701498872704700100240CB
:102110000000FFF8FFFFF6FE00004242800442424A
:1021200000127A0000093D00140000202400002065
:1021300010B50446BE48844208D101218014FFF73F
:10214000ADFF0021A014FFF7A9FF16E0B9488442B3
:1021500008D101210014FFF7AEFF00212014FFF782
:10216000AAFF0AE0B448844207D10121C013FFF757
:10217000A2FF0021E013FFF79EFF10BD10B5002263
:10218000028802F441520B884C8823438C882343F5
:10219000CC8823430C8923434C8923438C892343D4
:1021A000CC8923431A430280838B4FF2FF74234070
:1021B00083830B8A038210BD2DE9F04F85B005465D
:1021C0000C464FF0000902274FF000084FF0010BBA
:1021D0000026B246A88B4FF240010840A883022097
:1021E0002884B5F81C90A068022801D100BF38E00F
:1021F000A08810B94FF0010B01E04FF0020B8D48A1
:10220000854200D100E000BF6846FFF7C0FEDDF860
:1022100000A0E088B0F5007F0AD14FEA1A2000EB59
:1022200080004000A168B0FBF1F0401D86B20BE0D9
:102230004FEA4B10BAFBF0F000EB80004000A168C1
:10224000B0FBF1F0401D86B20A20B6FBF0F606F0B6
:102250000108A6EB0800C0F34F074FF6FF7000EA35
:102260000828022F01DBFF2F02DD02274FF00008B4
:10227000E08840EA080038432884A088A189084300
:10228000618808432188084340F4006040EA090956
:10229000A5F81C9005B0BDE8F08F002101804180B9
:1022A0008180C180018141818181C18107210182B9
:1022B00070470021018041808180C18002218160BE
:1022C00000218181704721B1028842F040020280E2
:1022D00004E002884FF6BF731A400280704721B1B4
:1022E000828B42F48062828304E0828B4FF6FF335C
:1022F0001A408283704730B5002400230C11012559
:10230000A540ABB21AB185881D43858002E085885F
:102310009D43858030BD1AB183880B43838002E0E2
:1023200083888B4383807047818170470146888909
:1023300070474FF6FF62914204D0028842F48072E7
:10234000028004E002884FF6FF631A400280704763
:1023500021B1828842F00402828004E082884FF634
:10236000FB731A408280704702884FF2FF731A4055
:10237000028002880A4302807047018841F480513C
:102380000180704721B1028842F40052028004E0CB
:1023900002884DF6FF731A40028070470246002003
:1023A000012901D0108B00E0908A70470146088A0D
:1023B0007047B1F5804F04D1028842F48042028018
:1023C00004E002884BF6FF731A4002807047024611
:1023D000002013890B400BB1012000E00020704762
:1023E000CA4302817047F0B5024600200024002352
:1023F000002501F00F070126BE40B4B20B110126E3
:102400009E40B3B2968806EA03051689264016B1A7
:102410000DB1012000E00020F0BD10B5002201F058
:102420000F040123A3409AB2D343038110BD0000DF
:102430000030014000380040003C004010B5044628
:10244000FE48844208D10121C014FFF727FE002175
:10245000E014FFF723FEC4E0B4F1804F08D101215E
:102460000846FFF728FE00210120FFF724FEB8E010
:10247000F348844208D101210220FFF71CFE00210D
:102480000220FFF718FEACE0EE48844208D101219B
:102490000420FFF710FE00210420FFF70CFEA0E04F
:1024A000E948844208D101210820FFF704FE0021F9
:1024B0000820FFF700FE94E0E448844208D101219F
:1024C0001020FFF7F8FD00211020FFF7F4FD88E051
:1024D000DF48844208D101212020FFF7ECFD0021D4
:1024E0002020FFF7E8FD7CE0DA48844208D1012192
:1024F0004014FFF7D3FD00216014FFF7CFFD70E01B
:10250000D548844209D10121C804FFF7C7FD002145
:102510004FF40020FFF7C2FD63E0D048844209D1A8
:1025200001210805FFF7BAFD00214FF48010FFF7E5
:10253000B5FD56E0CA48844209D101214805FFF79C
:10254000ADFD00214FF40010FFF7A8FD49E0C5489C
:10255000844208D101214020FFF7ADFD0021402039
:10256000FFF7A9FD3DE0C048844208D10121802049
:10257000FFF7A1FD00218020FFF79DFD31E0BB4862
:10258000844208D101218015FFF795FD0021A01597
:10259000FFF791FD25E0B648844209D101210804E6
:1025A000FFF77CFD00214FF48030FFF777FD18E046
:1025B000B048844209D101214804FFF76FFD002192
:1025C0004FF40030FFF76AFD0BE0AB48844208D1BE
:1025D00001218804FFF762FD00214FF48020FFF7FE
:1025E0005DFD10BD00220288944B98420ED0994B9D
:1025F00098420BD0B0F1804F08D0914B984205D053
:10260000904B984202D0904B984204D14FF68F7372
:102610001A404B881A438D4B984207D08C4B9842F6
:1026200004D04FF6FF431A40CB881A4302808B88B0
:1026300083850B880385814B98420BD0854B98424C
:1026400008D08B4B984205D08A4B984202D08A4BD7
:10265000984201D10B7A038601238382704770B5BB
:10266000002400220023058C4FF6FE7635400584B9
:10267000028C8388048B4FF68F752C40B51E2C403E
:102680000D882C43751E2A400D892A434D882A4304
:102690006A4DA8420BD06F4DA84208D0744DA84295
:1026A00005D0744DA84202D0734DA84213D14FF605
:1026B000F7752A404D892A434FF6FB752A408D88CD
:1026C0002A434FF6FF652B404FF6FF552B408D896F
:1026D0002B43CD892B4383800483CD888586028458
:1026E00070BD70B5002400220023058C4FF6EF76F4
:1026F00035400584028C8388048B48F6FF752C4096
:102700004FF6FF452C400D884FF6FF7606EA05256B
:102710002C434FF6DF752A400D8906EA05152A433A
:102720004D8806EA05152A43444DA84202D0494D7A
:10273000A8421DD14FF67F752A404D894FF6FF768E
:1027400006EA05152A434FF6BF752A408D8806EA2A
:1027500005152A434FF6FF352B404FF2FF752B40EE
:102760008D8906EA85052B43CD8906EA85052B432D
:1027700083800483CD880587028470BD70B50024F2
:1027800000220023058C4FF6FF6635400584028C3D
:102790008388848B4FF68F752C404FF6FC752C4048
:1027A0000D882C434FF6FF552A400D894FF6FF76D2
:1027B00006EA05252A434D8806EA05252A431F4DCA
:1027C000A84202D0234DA8421DD14FF2FF752A40E6
:1027D0004D894FF6FF7606EA05252A434FF6FF3569
:1027E0002A408D8806EA05252A434EF6FF752B40C0
:1027F0004DF6FF752B408D8906EA05152B43CD89D3
:1028000006EA05152B4383808483CD88858702845F
:1028100070BD70B5002200230024058C4EF6FF76B3
:1028200035400584038C8488828B48F6FF752A40E6
:102830004FF6FF452A400D8820E00000002C0140A3
:102840000004004000080040000C00400010004060
:102850000014004000340140004C01400050014091
:102860000054014000180040001C004000200040BF
:102870000040014000440140004801404FF6FF760F
:1028800006EA05252A434DF6FF752B400D8906EA19
:1028900005352B434D8806EA05352B43FA4DA842F2
:1028A00002D0FA4DA84208D14BF6FF752C408D8915
:1028B0004FF6FF7606EA85152C4384808283CD8807
:1028C000A0F84050038470BD828B4FF2FF331A4052
:1028D0008283828B4FF6FF7303EA01231A438283BC
:1028E0007047F0B50C461546002200210026078CE3
:1028F0004EF6FF7C07EA0C070784828B018C4FF6AB
:10290000FF7707EA043640F6FF473A404FF6FF7775
:1029100007EA05273A434FF6FF7707EA03373A43BA
:10292000D94FB8420ED0D94FB8420BD0B0F1804F3A
:1029300008D0D74FB84205D0D64FB84202D0D64FB4
:10294000B84206D14DF6FF77394046F480573943F7
:1029500005E047F6FF57394044F4805739438283F6
:102960000184F0BD828B4FF6F3731A408283828B11
:102970000A4382837047F0B50C46154600220021B9
:102980000026078C4FF6FF6C07EA0C070784828B42
:10299000018C4FF6FF7707EA04264FF60C773A4092
:1029A0004FF6FF7707EA03172F433A43B64FB84273
:1029B0000ED0B64FB8420BD0B0F1804F08D0B44F14
:1029C000B84205D0B34FB84202D0B34FB84206D197
:1029D0004FF6FF57394046F48077394305E04FF210
:1029E000FF57394044F48077394382830184F0BD36
:1029F000028B4FF2FF331A400283028B4FF6FF73B4
:102A000003EA01231A4302837047F0B50C461546CA
:102A1000002200210026078C4FF6EF7C07EA0C0706
:102A20000784028B018C4FF6FF7707EA041640F605
:102A3000FF473A404FF6FF7707EA03373A434FF62E
:102A4000FF7707EA05273A438F4FB8420ED08F4FE2
:102A5000B8420BD0B0F1804F08D08D4FB84205D0AE
:102A60008C4FB84202D08C4FB84206D14FF6DF7778
:102A7000394046F01007394305E04FF65F7739409B
:102A800044F01007394302830184F0BD028B4FF6F6
:102A9000F3731A400283028B0A4302837047F0B536
:102AA0000C46154600220021068C4FF6FE773E406C
:102AB0000684028B018C4FF60C7632407E1C06EAAF
:102AC00003162E433243704EB0420ED06F4EB042CA
:102AD0000BD0B0F1804F08D06D4EB04205D06D4E96
:102AE000B04202D06C4EB04206D14FF6FD76314076
:102AF00044F00106314305E04FF6F576314044F0ED
:102B00000106314302830184F0BD70B505460C46D1
:102B10005D4885420ED05D4885420BD0B5F1804FAF
:102B200008D05B48854205D05A48854202D05A48B1
:102B3000854200D100E000BF208850B92389A288D7
:102B400061882846FFF7ABFFE1882846FFF79EFF24
:102B500025E0208804280AD12389A2886188284694
:102B6000FFF753FFE1882846FFF742FF17E0208870
:102B700008280AD12389A28861882846FFF7FBFE2E
:102B8000E1882846FFF7EEFE09E02389A2886188E4
:102B90002846FFF7A6FEE1882846FFF795FE70BDA0
:102BA0002DE9F04105460C4600260127608808B94A
:102BB000022600E00026A088012801D1022700E0BB
:102BC00001272088A0B92389A28861882846FFF7B9
:102BD00066FFE1882846FFF759FF23893A463146C8
:102BE0002846FFF712FFE1882846FFF701FF13E0B0
:102BF0002389A28861882846FFF707FFE1882846D5
:102C0000FFF7F6FE23893A4631462846FFF747FF8D
:102C1000E1882846FFF73AFFBDE8F0810A884B8833
:102C20001A438B881A43CB881A430B891A434B8962
:102C30001A438B891A43A0F8442070474FF6FF715E
:102C4000818000210180C180418001727047002194
:102C5000018041808180C180018141818181C18168
:102C60007047002101804180012181800021C180C5
:102C7000018170470021018041808180C1800181F4
:102C80004181818170470000002C014000340140E7
:102C90000004004000080040000C004021B1028800
:102CA00042F00102028004E002884FF6FE731A40EF
:102CB0000280704731B1B0F8442042F40042A0F8DD
:102CC000442005E0B0F84420C2F30E02A0F84420EE
:102CD00070471AB183890B43838102E083898B4358
:102CE000838170478182704741EA0203A0F848302F
:102CF00070471AB183890B43838102E083898B4338
:102D00008381704701894FF6F87211400181704745
:102D10000A46002101894FF68F7319401143018142
:102D2000704730B504460D4629462046FFF7F0FFB0
:102D3000208940F00700208130BD2DE9F041044694
:102D40000D4616461F46602D06D13B4601223146F0
:102D50002046FFF75AFE05E03B4601223146204659
:102D6000FFF79DFE29462046FFF7D2FF208940F05D
:102D700007002081BDE8F08130B50C4600210189B3
:102D8000C9B24FF6FF7505EA0325154325432943CC
:102D9000018130BD2DE9F04105460E4617469846A3
:102DA000002443463A4631462846FFF7E5FF2C8982
:102DB0004FF6F870044044F007044FF68F7004405B
:102DC00044F070042C81BDE8F081F0B504460D4656
:102DD00016461F463B46324629462046FFF7CCFFA3
:102DE000208940F480402081F0BD018582827047B7
:102DF0000A46002101884FF68F7319401143018064
:102E00007047F0B50C4615461E46002100220023EF
:102E10000189028B038C4FF6F877394021434FF636
:102E2000FC473A4040F201173A434FF6DD773B400A
:102E30004FF6FF7707EA06172F433B4301810283D2
:102E40000384F0BD0A460021018B4FF68F731940B1
:102E50001143018370470A460021018B48F6FF7336
:102E600019404FF6FF7303EA0223194301837047A9
:102E70000A460021818B4FF68F73194011438183DD
:102E800070470A460021818B48F6FF7319404FF6C0
:102E9000FF7303EA022319438183704721B102883B
:102EA00042F08002028004E002884FF67F731A40ED
:102EB0000280704721B1828842F00402828004E0DF
:102EC00082884FF6FB731A408280704721B1828856
:102ED00042F00802828004E082884FF6F7731A40BD
:102EE0008280704721B1828842F00102828004E032
:102EF00082884FF6FE731A40828070470A4600218E
:102F0000018B4FF6F77319401143018370470A464E
:102F10000021018B4FF2FF7319404FF6FF7303EA54
:102F200002231943018370470A460021818B4FF623
:102F3000F77319401143818370470A460021818B42
:102F40004FF2FF7319404FF6FF7303EA0223194350
:102F5000818370470A460021018B4FF6FB731940AD
:102F60001143018370470A460021018B4FF6FF335E
:102F700019404FF6FF7303EA022319430183704798
:102F80000A460021818B4FF6FB7319401143818360
:102F900070470A460021818B4FF6FF3319404FF6E8
:102FA000FF7303EA02231943818370470A46002115
:102FB000018B4FF67F7319401143018370470A4616
:102FC0000021018BC1F30E014FF6FF7303EA0223C8
:102FD0001943018370470A460021818B4FF67F73A6
:102FE00019401143818370470A460021818BC1F348
:102FF0000E014FF6FF7303EA0223194381837047E2
:103000000A460021018C4FF6FD73194011430184DB
:1030100070470A460021018C4FF6F773194011439F
:10302000018470470A460021018C4FF6DF73194076
:103030004FF6FF7303EA02131943018470470A46EF
:103040000021018C4FF67F7319404FF6FF7303EA9E
:1030500002131943018470470A460021018C4FF680
:10306000FF5319404FF6FF7303EA0223194301840B
:1030700070470A460021018C4FF2FF7319404FF64A
:10308000FF7303EA02231943018470470A460021B3
:10309000018C4DF6FF7319404FF6FF7303EA0233BC
:1030A00019430184704730B5002301248C40A3B23A
:1030B000048C9C430484048C02FA01F5ADB22C43C9
:1030C000048430BD30B5002304248C40A3B2048CAA
:1030D0009C430484048C02FA01F5ADB22C430484B1
:1030E00030BD70B503460020002418461830012575
:1030F0008D40ACB21D8CA5431D8409B1082909D1AE
:1031000000EB6100056825F0700505600568154352
:1031100005600EE00D1FC5F34E052844056825F433
:10312000E045056005684FF6FF7606EA022635435E
:10313000056070BD21B1028842F00202028004E005
:1031400002884FF6FD731A400280704721B1028851
:1031500042F00402028004E002884FF6FB731A403A
:103160000280704721B1828842F08002828004E0B0
:1031700082884FF67F731A408280704702884FF62C
:10318000F7731A40028002880A43028070478288DF
:103190004FF68F731A40828082880A43828070477C
:1031A00002894FF6F8731A40028102890A430281AC
:1031B000704702894FF67F731A40028102890A43E1
:1031C000028170478184704781857047818670478E
:1031D0000187704781877047A0F8401070470288C8
:1031E0004FF6FF431A40028002880A43028070476C
:1031F0000146888E70470146088F70470146888FC8
:1032000070470146B1F8400070470146888C70470E
:103210000146088D704702460020138A0B400BB10F
:10322000012000E000207047CA430282704730B599
:103230000246002000230024158A05EA010395892F
:1032400005EA010413B10CB1012000E0002030BDFB
:10325000CA4302827047000010B50446FB4884420E
:1032600009D101218803FEF719FF00214FF48040A6
:10327000FEF714FF32E0F648844209D101214804E8
:10328000FEF719FF00214FF40030FEF714FF25E090
:10329000F048844209D101218804FEF70CFF002187
:1032A0004FF48020FEF707FF18E0EB48844209D175
:1032B0000121C804FEF7FFFE00214FF40020FEF7B5
:1032C000FAFE0BE0E548844208D101210805FEF72B
:1032D000F2FE00214FF48010FEF7EDFE10BD2DE947
:1032E000F04786B005460E460024A24600BFA14620
:1032F0000027B08900B100BF2F462C8A4CF6FF7022
:103300000440F08804432C82AC894EF6F31004404C
:10331000B08831890843718908430443AC81AC8A81
:103320004FF6FF400440B0890443AC8201A8FEF789
:103330002EFEC648874202D1DDF810A001E0DDF87C
:103340000CA0A88900F4004040B10AEBCA0000EBD1
:103350000A1031684900B0FBF1F807E00AEBCA0037
:1033600000EB0A1031688900B0FBF1F86420B8FB6B
:10337000F0F004012009642101FB1089A88900F400
:10338000004040B1322000EBC900B0FBF1F000F08A
:103390000700044308E0322000EB09106421B0FB71
:1033A000F1F000F00F0004432C8106B0BDE8F08777
:1033B0004FF41651016000218180C18001810C21F0
:1033C000418100218181704710B502460020108A9A
:1033D0004FF2FF0318400B884C8823438C8823430B
:1033E000CC8823431843108210BD00210180418006
:1033F0008180C180704721B1828942F4005282816C
:1034000004E082894DF6FF731A4082817047F0B55F
:103410000346002400260025002040F66A17B94222
:1034200000D100BF1846C1F3421401F01F06012766
:1034300007FA06F5012C01D10C3004E0022C01D171
:10344000103000E014301AB107682F43076002E023
:103450000768AF430760F0BD1AB1838A0B438382CC
:1034600002E0838A8B4383827047028A4FF6F073AF
:103470001A400282028A0A430282704782894FF20E
:10348000FF731A40828182890A438281704721B189
:10349000828942F00202828104E082894FF6FD7344
:1034A0001A4082817047028A4FF6DF731A40028207
:1034B000028A0A430282704721B1028A42F48042A2
:1034C000028204E0028A4BF6FF731A4002827047C0
:1034D000C1F308028280704701468888C0F3080063
:1034E0007047818941F0010181817047028BD2B21E
:1034F0000283028B42EA012202837047028B02F4AC
:103500007F420283028B0A430283704721B1828A81
:1035100042F02002828204E0828A4FF6DF731A4072
:103520008282704721B1828A42F01002828204E0D6
:10353000828A4FF6EF731A408282704721B1828AE5
:1035400042F00802828204E0828A4FF6F7731A4042
:103550008282704721B1828942F40042828103E075
:103560008289C2F30E028281704721B1828A42F4BD
:103570000062828204E0828A4FF2FF731A408282E4
:103580007047828A4FF6FB731A408282828A0A430E
:103590008282704721B1828A42F00202828204E074
:1035A000828A4FF6FD731A408282704702460020DD
:1035B000B1F5007F00D100BF13880B400BB1012093
:1035C00000E00020704701F40072B2F5007F00D1E6
:1035D00000BFCA430280704770B502460024002332
:1035E0000025002040F66A16B14200D100BFC1F3A9
:1035F000421501F01F03012606FA03F3012D02D143
:103600009689334006E0022D02D1168A334001E04C
:10361000968A33400C12012606FA04F416883440C8
:1036200013B10CB1012000E0002070BD10B50022E4
:10363000002340F66A14A14200D100BF0A120124FF
:103640009440A3B2DC43048010BD00000038014068
:103650000044004000480040004C00400050004042
:103660008CB042F2107000F00BF94FF4A060FCF740
:1036700049FE00F00FFA01206249487100F00CF990
:1036800000F081F900F04AF900F02AF900F091F910
:103690004FF4E13000F068FF01F00AFD00F0F5FAA8
:1036A00042F2107000F0ECF800F08EFA42F2107066
:1036B00000F0E6F800F078FB42F2107000F0E0F85D
:1036C00000F05CFD42F2107000F0DAF800F007FB49
:1036D00042F2107000F0D4F800F0B8FD4A4803F050
:1036E0002FFC01F076FF42F2107000F0C9F8684636
:1036F00001F05FFE2E226946444803F0A3FC0A2035
:10370000424981F82C0000BF0846807810B902F0C9
:1037100019FA15E03D488078012804D100F0D0F86E
:1037200002F0FEFC0CE039488078022802D102F059
:103730006DF805E035488078032800D100E000BF2F
:1037400000BF42F2107000F09BF800F02CFA30A09D
:1037500003F0F6FF0120354981F8270051E000F021
:10376000BEF92A4890F8260088BB43F6D4103049A9
:1037700088606320254981F8260004202B4981F8C0
:10378000270000BF2148807830B92948008981B2DC
:103790001E2001F091FE1CE01C488078012804D115
:1037A000FA211E2001F088FE13E0184880780228D4
:1037B00004D1FA211E2001F07FFE0AE01348807830
:1037C000032805D1FA211E2001F076FE01E001E078
:1037D00000BF00BF17488078012810D116488068C4
:1037E000154949680844444214484068009012480A
:1037F00082682346416812A003F0A2FF00BF00F0D8
:10380000D2F9ACE7E2020020B0040020A4020020BC
:10381000496E697469616C697A6174696F6E20635D
:103820006F6D706C65746564210000007C0200207F
:1038300060040020D20200206C010020180100204A
:1038400025640925640925640925640A000000002F
:1038500001200849487008480068401C0649086073
:10386000704710B500F06FFB80210448FFF7F0FCB3
:1038700010BD0000D2020020B4010020002C014045
:1038800042F2107105E001E04A1E91B20029FBD11D
:10389000401E0028F7D1704708B501211C20FEF713
:1038A000E3FB4FF44070ADF8000010208DF80300EA
:1038B00003208DF8020069466A48FEF719F908BD31
:1038C00008B54FF46040ADF8000004208DF8030007
:1038D00003208DF8020069466348FEF709F908BD28
:1038E00008B54FF48050ADF8000018208DF80300A3
:1038F00003208DF8020069465C48FEF7F9F84FF4A2
:103900000060ADF8000048208DF8030003208DF81A
:10391000020069465548FEF7EBF808BD08B54FF4BC
:103920008060ADF8000018208DF8030003208DF8AA
:10393000020069464B48FEF7DBF84FF40060ADF833
:10394000000004208DF8030003208DF80200694672
:103950004448FEF7CDF808BD08B56846FEF753F9B0
:1039600001210803FEF795F94FF44070ADF800000F
:1039700018208DF8030003208DF8020069463948AD
:10398000FEF7B6F808BD08B50F20ADF8000000201E
:103990008DF8030069463548FEF7AAF80120ADF816
:1039A000000000208DF8030069462E48FEF7A0F8BD
:1039B00008BD08B501212E48FEF76BF94FF4E06011
:1039C000ADF8000018208DF8030003208DF80200E8
:1039D00069462648FEF78CF84FF46040ADF80000C9
:1039E00018208DF8030003208DF8020069461D4859
:1039F000FEF77EF84FF48050ADF8000048208DF8B7
:103A0000030069461748FEF773F808BD15480C30E7
:103A1000006800F0020008B9002100E01021022037
:103A20008840104910310860081F006800F4807059
:103A300008B9002100E010214FF480708840094946
:103A400010310860081F006800F4007008B90021F8
:103A500000E010214FF400708840024910310860E6
:103A600070470000000C01400010014000080140B8
:103A7000C000160010B5002807DA0A07140E4E4AD7
:103A800000F00F031B1FD45403E00A07130E4B4A28
:103A9000135410BD10B54A4800686421B0FBF1F41E
:103AA000B4F1807F01D3012011E024F07F40401E5B
:103AB0004FF0E02148610F214FF0FF30FFF7DAFFB0
:103AC00000204FF0E021886107200861002008B144
:103AD00000BFFEE70021481EFFF7CCFF10BD10B568
:103AE0003848407801281BD1002036494870012011
:103AF00088700846C078401CC0B2C8700A2803DB32
:103B00000020C870012008712E484079401CC0B2C6
:103B10002C4948710A2803DB002048710120887174
:103B20002848807901280BD12648C079401CC0B2B2
:103B30002449C871052803DB0020C87101200872E0
:103B40002048007A01280BD11E48407A401CC0B2A0
:103B50001C494872022803DB002048720120887249
:103B60001848807A01280DD1FFF750FF1548C07A18
:103B7000401CC0B21349C8720A2803DB0020C87277
:103B8000012008730F48007B01280BD10D48407BB2
:103B9000401CC0B20B494873062803DB0020487361
:103BA0000120887310BD0020064988700871887153
:103BB000087288728873704718ED00E000E400E036
:103BC00000000020D202002000B585B0012148028B
:103BD000FEF74AFA6F48FCF703FC6846FCF74AFC1C
:103BE0000020009001208DF804008DF805004FF4AE
:103BF000602002900020039005208DF81000694697
:103C00006448FCF714FC4FF48040FEF791F902235E
:103C1000012200215F48FCF7A2FC02231A46012181
:103C20005C48FCF79CFC0223032219465948FCF728
:103C300096FC0723042203215648FCF790FC02233C
:103C4000052208215348FCF78AFC01215148FCF762
:103C50001AFC01214F48FCF721FC4E48FCF735FCCB
:103C600000BF4C48FCF736FC0028FAD14948FCF765
:103C70003BFC00BF4748FCF73CFC0028FAD101217F
:103C80004448FCF740FC05B000BD00B58BB00121F5
:103C90000846FEF7DCF94048FDF7C2FA3D484C30D3
:103CA00000903E48019000200290052003900020E3
:103CB000049080200590400006908000079020200E
:103CC00008900002099000200A9069463248FDF7EA
:103CD00049FB01213048FDF770FB0BB000BD10B56A
:103CE00010202F49087021E02E4840692B4909888F
:103CF00008442C4948610846C06928494988084455
:103D00002849C861084680692449898808442549AA
:103D1000886142F21070FFF7B3FD42F21070FFF7B6
:103D2000AFFD1F480078401E1D4908701C480078F0
:103D30000028D9D11B48406900111A49486108463A
:103D4000C0690011C86108468069001188614FF49C
:103D500000604861C861886110BD10480088114941
:103D60004969401A40000F4908600C484088C969F9
:103D7000401A40000B498860084880888969401AC9
:103D80004000084948600548C08808610348008928
:103D9000C8607047002401400800024098030020DA
:103DA000BC0100206C01002000B58DB00121C802CB
:103DB000FEF75AF90020ADF828002020ADF82A00BF
:103DC0004FF43460ADF82C000020ADF82E00012037
:103DD0008DF830000AA96548FEF704FC6020ADF8B4
:103DE00018000120ADF81A000420ADF81C004FF4B3
:103DF0007A70ADF81E000020ADF82000ADF822006A
:103E0000ADF82400ADF8260006A95848FEF727FCB7
:103E10004FF47A70ADF81E0006A95448FEF761FC15
:103E20004FF47A70ADF81E0006A95048FEF7A6FCC4
:103E300008214E48FFF762F808214C48FFF767F861
:103E400008214A48FFF770F84FF40060ADF8080009
:103E50004010ADF80A008010ADF80C004020ADF81D
:103E60000E008001ADF810000020ADF8140002A98A
:103E70003E48FEF7D3FE01213C48FFF7D5F901216A
:103E80003A48FFF7E5F9012211463848FEF721FFCD
:103E900001213648FEF702FF01213448FEF70AFFF0
:103EA0004FF4A060FCF72EFA19208DF804000120D1
:103EB0008DF8050000208DF8060001208DF8070020
:103EC00001A8FCF724FA0DB000BD294880684FF422
:103ED000B461484301EBE03000B226490880244831
:103EE000C0684FF4B461484301EBE03000B22149AF
:103EF00048801F4800694FF4B461484301EBE0304B
:103F000000B21C498880084600881849343108806E
:103F100018484088091D088016488088091D0880B7
:103F200070470020114934310880091D0880091D9F
:103F300008800E482030008845F2555108430B494F
:103F40002031088070474FF43460084934310880CC
:103F5000091D0880091D08800448203000884AF6A1
:103F6000AA2108400149203108807047002C0140F7
:103F700038030020BE0100204168416141684A10B9
:103F800046F6AD530168594302EBE1318161D0E956
:103F90000521891AC161032101848169002902DD9B
:103FA000018C491E00E0018C0184C169002902DDF9
:103FB000018C491E00E0018C01844169002903DA6B
:103FC000018CC1F1070100E0018C0184018C012901
:103FD00002D0018C042909D181698160C2694169DB
:103FE000891AC16081694942016119E0018C022985
:103FF00002D0018C052909D1D0E906211144816044
:104000004169C16041694942016109E0C16981605A
:10401000C1694942C160D0E90512114449420161B8
:104020007047000001460A8890B2801100F4407287
:104030004AB1B2F5807F12D0B2F5007F1CD0B2F544
:10404000407F34D126E0C2B2304B33F912204A60AF
:10405000C2B2C2F1FF0233F912208A6028E0C2B274
:10406000C2F1FF02294B33F912204A60C2B233F980
:10407000122052428A601BE0C2B2244B33F9122054
:1040800052424A60C2B2C2F1FF0233F912205242D8
:104090008A600DE0C2B2C2F1FF021C4B33F912205C
:1040A00052424A60C2B233F912208A6000E000BF77
:1040B00000BF70470346934201DC104604E08B4288
:1040C00001DB084600E01846704730B503460BB9DF
:1040D000002030BD00219A0F9B00012A01D9491C04
:1040E000521A0F240DE04900920002EB93720D4624
:1040F000012000EB45059B00AA4201D3521B491C3D
:10410000641E002CEFD10846E3E700008079000828
:104110000168C160D0E9001201EB420144F6E612E9
:104120005143C91301617047826901685143CA1341
:1041300043694168594302EBE131C16082694168DA
:104140005143CA13436901685943A2EBE13101614C
:1041500070478269C1685143CA13D0E904135943B7
:10416000A2EBE1310160826901695143CA134369DD
:10417000C168594302EBE1314160704700B587B037
:1041800001210420FDF77DFF2E48006844F25061B4
:10419000B0FBF1F0401E80B2ADF814000020ADF885
:1041A0001000ADF81600ADF8120004A92648FEF77D
:1041B00019FA6020ADF800000120ADF8020064207B
:1041C000ADF806000020ADF8080069461E48FEF76D
:1041D00046FA08211C48FEF791FE0120ADF80200C6
:1041E0006420ADF8060069461748FEF77AFA082100
:1041F0001548FEF78CFE0120ADF802006420ADF8F2
:10420000060069461048FEF7B9FA08210E48FEF785
:104210008BFE0120ADF802006420ADF8060069466F
:104220000948FEF7F6FA08210748FEF786FE012145
:104230000548FEF733FE01210348FEF72FFD07B0C6
:1042400000BD000000000020000800404FF4407056
:10425000BA49486100208861486342F21070C86121
:1042600000200862FA20886442F21070C8644FF49B
:104270000060B349486102208861C002486346F289
:104280009050C86100200862FA20886447F23050DC
:10429000C8644FF48060AB494861022088614FF4E4
:1042A0004060486346F29050C861002008623220A6
:1042B000886447F23050C86440F26660A2494861A1
:1042C000022088614FF44060486346F29050C86114
:1042D00000200862C820886447F23050C8647047E4
:1042E00010B50446D4E90001401AA060A16CA06892
:1042F000884206DAA16C4942A068884201DD0020AC
:10430000A060E16C4942A068884202DAE06C404259
:10431000A060E16CA068884201DDE06CA060A1684B
:104320006069484380126062A068002808DDD4E913
:104330000D014843216B891C01EBA020A06207E01E
:10434000D4E90D014843216B891E01EBA020A06236
:10435000A06A2063D4E909010844E062E3695A4293
:104360001946E06AFFF7A6FEE060E16AE068401ADD
:10437000A06310BD10B50446D4E90001401AA06046
:10438000A16CA068884206DAA16C4942A068884204
:1043900001DD0020A060E16C4942A068884202DA99
:1043A000E06C4042A060E16CA068884201DDE06CF6
:1043B000A060A1686069484380126062A168A0693A
:1043C00048438012A0B9A068002808DDD4E90D0197
:1043D0004843216B491C01EBA020A06214E0D4E902
:1043E0000D014843216B491E01EBA020A0620BE0A8
:1043F000A168A0694843216B01EBA021D4E90D021B
:104400005043A1EBA020A062A06A2063E3695A4256
:104410001946A06AFFF74EFEA062616AE069401A81
:10442000A16A884204DA616AE069401AA0620BE07E
:10443000E0694042616A401AA16A884204DDE0698D
:104440004042616A401AA062A06A2063D4E909016F
:104450000844E062E3695A421946E06AFFF72AFE1F
:10446000E060E168E06A401AA06310BD10B5044640
:10447000D4E90001401A6062E16AE068884206D12E
:10448000616AA0694843216B01EBE03000E0206BDA
:10449000A062A06A2063616A60694843A16A01EB77
:1044A000E030E062D4E90712E06AFFF703FEE06063
:1044B00010BD41F62840224948611F20886146F618
:1044C000CC40C8610020086240F233301D49486189
:1044D0000F20886140F6CC40C8614042086240F23B
:1044E0009530194948611220886146F6CC40C86170
:1044F0000020086270470020114948600860114997
:104500000860114908600D4948628862C862086302
:10451000C86008610A4948628862C8620863C86066
:104520000861084948628862C8620863C860064931
:1045300048628862C8620863C8607047280000202B
:1045400078000020C80000201801002000BF70473C
:1045500000BFFE4A128802F04002002AF9D0C2B21F
:10456000FA4B1B1D1A80704710B590B0044601210C
:104570000846FDF779FD01218804FDF782FD012140
:104580000846FDF764FD27208DF82C0003208DF8E8
:104590002D0002208DF82E0001208DF82F000BA891
:1045A000FBF7B5FEE948FEF757FE0C940020ADF886
:1045B0003400ADF83600ADF83800ADF83C000C2002
:1045C000ADF83A000CA9E148FEF789FE012240F25D
:1045D0002441DE48FEF71BFF0121DC48FEF70BFFFC
:1045E000DB48FCF71DFED948001D0090D94801901A
:1045F000002002903220039000200490802005903B
:1046000000200690079020200890C001099000200B
:104610000A906946CE48FCF7A5FE0C208DF82C00C8
:1046200003208DF82D008DF82E0001208DF82F002D
:104630000BA8FBF76CFEC6481438FCF7F1FDC34825
:10464000001D0090C4480190102002903220039079
:10465000002004908020059000200690079008908C
:104660004FF40050099000200A906946B848143869
:10467000FCF778FE01220221B5481438FCF7A9FEA8
:104680000121B3481438FCF798FE01228021AF487D
:10469000FEF7E2FE0121AE48FCF78FFE0122402129
:1046A000AA48FEF7D9FE10B010BD70B5044600252B
:1046B000A94800210170AA20A74908700846447043
:1046C000082C04D00A2C0BD00C2C1BD111E0A348D1
:1046D0000088000AA0498870A0480078C87000BF10
:1046E0009E48C088000A9C4988709C488079C870A0
:1046F00000BF9A488089000A974988709748007BD4
:10470000C87000BF00BF954890F826009249087114
:10471000924890F8270048712A218F4802F0F2FB56
:10472000054628128C498871CD71662081F82C00CD
:10473000012187481438FCF740FE70BD10B50446CF
:104740006078082804D00A2822D00C2862D140E0E2
:104750008348007800F00F0018B10A207F4981F8E3
:1047600026007E4890F82700042803D00C207B49BF
:1047700081F826000820FFF798FF784890F8260077
:1047800028B9E078A17840EA01207649486042E003
:104790007348007800F00F00012803D00A206F4909
:1047A00081F826006D4890F82700042803D00C20DB
:1047B0006A4981F826000A20FFF777FF674890F8DA
:1047C000260028B9E078A17840EA01206549886090
:1047D00021E06348007800F00F00022803D00A208F
:1047E0005E4981F826005D4890F82700042803D030
:1047F0000C205A4981F826000C20FFF756FF574835
:1048000090F8260028B9E078A17840EA01205549BF
:10481000C86000E000BF00BF10BD70B504460025B1
:104820004D4800210170AA204B4908700846447089
:104830004A480088000A887048480078C87047488D
:104840004088000A0871454880784871434880884C
:10485000000A887141480079C8714048C088000A40
:1048600008723E48807948723C480089000A887284
:104870003A48007AC87239484089000A08733748B4
:10488000807A487335488089000A88733348007BF2
:10489000C8733248C089000A08743048807B487465
:1048A0002E48008A000A88742C48007CC8742B4863
:1048B000408A000A08752948807C48752748808A04
:1048C000000A88752548007DC8752448C08A000AFA
:1048D00008762248807D48762048008B000A88763A
:1048E0001E48007EC8761D48408B000A08771B488A
:1048F000807E48771948808B000A88771748007FA8
:10490000C8771648C08B000A81F820001348807FC2
:1049100081F821001148008C000A81F822000F481C
:1049200090F8200081F823000C48408C000A81F8A0
:1049300024000A4890F8220081F825000748808C5E
:10494000000A81F8260005480EE0000000480040FB
:1049500030000240A2030020D40300207C0200208B
:10496000A40200207C03002090F8240081F8270096
:10497000F74890F8260081F82800F54890F82700BD
:1049800081F829002A21F34802F0BCFA05462812D2
:10499000F04981F82A0081F82B50662081F82C001C
:1049A0000121ED48FCF709FD70BD10B504466078A3
:1049B000102804D0122829D0142876D14DE0E078B0
:1049C000A17840EA012000B2E44988836079217926
:1049D00040EA012000B2E149C883E079A17940EAC8
:1049E000012000B2DD490884607A217A40EA012082
:1049F00000B2DA494884E07AA17A40EA012000B2A4
:104A0000D64988841020FFF708FF4FE0E078A178AE
:104A100040EA012000B2D14948826079217940EA18
:104A2000012000B2CD498882E079A17940EA0120D5
:104A300000B2CA49C882607A217A40EA012000B2F5
:104A4000C6490883E07AA17A40EA012000B2C3494E
:104A500048831220FFF7E1FE28E0E078A17840EAE1
:104A6000012000B2BD4908816079217940EA012026
:104A700000B2BA494881E079A17940EA012000B248
:104A8000B6498881607A217A40EA012000B2B349B0
:104A9000C881E07AA17A40EA012000B2AF490882D9
:104AA0001420FFF7BAFE01E0FFE700BF00BF10BD12
:104AB00010B58CB0044660780E287CD1A0788DF8B3
:104AC0000100E0788DF8000020798DF80200A079CF
:104AD000617940EA0120ADF80400207AE17940EAEA
:104AE0000120ADF80600A07A617A40EA012000B208
:104AF000ADF80800207BE17A40EA012000B2ADF871
:104B00000A00A07B617B40EA012000B2ADF80C00F6
:104B1000207CE17B40EA012000B2ADF80E00A07CD1
:104B2000617C40EA012000B2ADF81000207DE17CFC
:104B300040EA012000B2ADF81200A07D617D40EA9C
:104B4000012000B2ADF81400207EE17D40EA012092
:104B500000B2ADF81600A07E617E40EA012000B2EE
:104B6000ADF81800207FE17E40EA012000B2ADF8E8
:104B70001A00A07F617F40EA012000B2ADF81C005E
:104B800094F82000E17F40EA012000B2ADF81E0059
:104B900094F8220094F8211040EA012000B2ADF808
:104BA000200094F8240094F8231040EA012000B279
:104BB000ADF8220000E00CE094F8260094F82510EF
:104BC00040EA012000B2ADF8240094F827008DF8E7
:104BD0002600684600F086FB0E20FFF71EFE0CB094
:104BE00010BD30B58DB00446002501A800F0E1FBF2
:104BF000584800210170AA205649087008464470A0
:104C00009DF8040088709DF80500C8709DF80600A6
:104C10000871BDF8080000124871BDF808008871DD
:104C2000BDF80A000012C871BDF80A000872BDF88C
:104C30000C00000A4872BDF80C008872BDF80E0026
:104C4000000AC872BDF80E000873BDF81000000A13
:104C50004873BDF810008873BDF81200000AC873CD
:104C6000BDF812000874BDF81400000A4874BDF8BD
:104C700014008874BDF81600000AC874BDF8160048
:104C80000875BDF81800000A4875BDF81800887549
:104C9000BDF81A00000AC875BDF81A000876BDF8FC
:104CA0001C00000A4876BDF81C008876BDF81E007E
:104CB000000AC876BDF81E000877BDF82000000A7B
:104CC0004877BDF820008877BDF82200000AC87731
:104CD000BDF8220081F82000BDF82400000A81F808
:104CE0002100BDF8240081F82200BDF82600000A4A
:104CF00081F82300BDF8260081F82400BDF82800C3
:104D0000000A81F82500BDF8280081F82600BDF8CA
:104D10002C00001281F82700BDF82C0081F8280033
:104D20009DF8300081F829002A210A4802F0EAF8AB
:104D300005462812074981F82A0081F82B50662081
:104D400081F82C0001210448FCF737FB0DB030BD81
:104D50007C020020D40300201C000240A40200209A
:104D600010B504466078801E0B287DD2DFE800F085
:104D700006171D21354657D080D0A800C2480078BC
:104D8000022808DA0420FFF72CFFBF480078401CF7
:104D9000BD490870BDE00220FFF73FFDB9E000F01B
:104DA00018FC0320FFF739FDB3E00420FFF719FFDB
:104DB000AFE00020B54981F82600084690F82700AA
:104DC000052806D1022081F827000520FFF725FDE0
:104DD0009FE00220FFF721FD9BE0AC4890F8270000
:104DE000042807D10320A94981F827000620FFF7EE
:104DF00014FD8EE00220FFF710FD8AE0A34890F832
:104E00002700032807D10420A04981F827000720A4
:104E1000FFF703FD7DE00220FFF7FFFC79E09C48EF
:104E2000007800F00F0030B10A20984981F8260080
:104E3000052081F82700954890F82700042806D01F
:104E40000C20924981F82600052081F827008F4820
:104E500090F82700042805D1E078A17840EA0120E5
:104E60008C494860082000E052E0FFF7D6FC50E093
:104E70008748007800F00F00012806D00A208349F7
:104E800081F82600052081F82700804890F8270047
:104E9000042806D00C207D4981F82600052081F8E1
:104EA00027007A4890F82700042805D1E078A178F7
:104EB00040EA0120774988600A20FFF7AEFC28E02D
:104EC0007348007800F00F00022806D00A206F49CE
:104ED00081F82600052081F827006C4890F827000B
:104EE000042806D00C20694981F82600052081F8A5
:104EF0002700664890F82700042805D1E078A178BB
:104F000040EA01206349C8600C20FFF786FC00E0FE
:104F100000BF00BF10BD10B500205F49088040F2FF
:104F200024415E48FEF758FB00287DD05B4800888E
:104F30005A48001D00885A48FCF756FA5949097822
:104F4000081A554908800846008807281AD156488B
:104F50000078AA2877D154488079662873D1042133
:104F6000514801F0CFFF504949794F4A127941EA3F
:104F70000221884267D14C48FFF7F2FE01204B49DD
:104F8000087060E0444800882B281DD1464800780E
:104F9000AA2858D1444890F82A00662853D12821DD
:104FA000414801F0AFFF404991F829103E4A92F87C
:104FB000282041EA0221884245D13B48FFF778FD8D
:104FC00001203A4908703EE0334800880F281AD182
:104FD00035480078AA2836D13348807B662832D1FC
:104FE0000C21314801F08EFF2F49497B2E4A127B5C
:104FF00041EA0221884226D12B48FFF7D6FC012046
:105000002A4908701FE02448008808281BD1264838
:105010000078AA2817D12448007B662813D10521DF
:10502000214801F06FFF00E019E01F4989791E4A0D
:10503000527941EA0221884205D11B48FFF77EFBE5
:1050400001201A49087000211548FCF7B6F93220F2
:1050500013493039486301211148FCF7AEF910BDFE
:1050600010B52020FCF7C4F901280CD100210C4810
:105070001438FCF7A2F92020FCF7CEF92D210848BE
:105080001438FCF7AFF910BDC80100207C020020E5
:10509000A40200207C030020C4010020004800403E
:1050A00030000240C6010020A2030020C7010020FA
:1050B00000B589B014208DF8040001208DF805009A
:1050C00002208DF8060001208DF8070001A8FBF7EB
:1050D0001EF901214806FCF7D4FF5A48FBF7A8FB4C
:1050E00006A8FBF7C9FC00208DF81E008DF81F00F4
:1050F0008DF820008DF821008DF822008DF8230016
:105100008DF81A008DF81B000E208DF81C0007206A
:105110008DF81D000620ADF8180006A94948FBF7D8
:10512000A0FB00208DF812008DF8130001208DF8EF
:10513000140045480068C0F34F30ADF808004248FD
:105140000088042101EBC00080B2ADF80A004FF6E0
:10515000FF70ADF80C00C01FADF80E000020ADF8D8
:10516000100001208DF8150002A8FBF704FC0020B8
:10517000364908603448406848600020487204207E
:10518000087208208872012202212E48FBF7F2FEE5
:1051900009B000BD00202C49497F01290CD1002114
:1051A000294A517700BF05E0274910310A5C0A54AB
:1051B000411CC8B20828F7DB704710B5002424480A
:1051C000807A012821D1AA201F4908721F211E4878
:1051D0004172122181723F21C17265210173402108
:1051E000417318218173FF21C17300BF07E0164886
:1051F0000830015D15480B300155601CC4B2082C05
:10520000F5DB12490F48FBF7A5FC10BD10B50024D3
:1052100000210C48FBF716FE98B10E4A0021094800
:10522000FBF78DFD01200849487700BF07E00948DA
:105230000B30015D044810300155601CC4B2082CCD
:10524000F5DB10BD0064004094010020080400203C
:10525000D20200201C0400202DE9F04705460F462D
:105260001646A5F100694FEA99284FF0006000EB5F
:10527000882AB5F1006F04D305EB4600FE49884249
:1052800001D3BDE8F087FCF714F95046FCF756F956
:10529000002407E037F8141005EB4400FCF751FA3E
:1052A000601C84B2B442F5DBFCF70FF900BFE8E7FD
:1052B00001460B884A8803EB024070470146088884
:1052C000704730B503460C461546002207E003EB55
:1052D0004200FFF7F3FF24F81200501C82B2AA42EA
:1052E000F5DB30BD30B595B00446502101A801F082
:1052F000C2FE28252078ADF804006078ADF80600DD
:10530000A078ADF80800A088ADF80A00E088ADF8F4
:105310000C00208980B2ADF80E00608980B2ADF833
:105320001000A08980B2ADF81200E08980B2ADF81B
:105330001400208A80B2ADF81600608A80B2ADF801
:105340001800A08A80B2ADF81A00E08A80B2ADF8E9
:105350001C00208B80B2ADF81E00608B80B2ADF8CF
:105360002000A08B80B2ADF82200E08B80B2ADF8B7
:105370002400208C80B2ADF82600608C80B2ADF89D
:105380002800A08C80B2ADF82A0094F82600ADF871
:105390002C00BA48008DADF84000B84890F82C00B9
:1053A000ADF842002A4601A9B548FFF755FF15B0F0
:1053B00030BD30B5A1B0044628252A460DA9B04815
:1053C000FFF77FFF0A20FEF75BFABDF83400C0B29A
:1053D0008DF80400BDF83600C0B28DF80500BDF8A8
:1053E0003800C0B28DF80600BDF83A00ADF80800EC
:1053F000BDF83C00ADF80A00BDF83E0000B2ADF8C3
:105400000C00BDF8400000B2ADF80E00BDF842003F
:1054100000B2ADF81000BDF8440000B2ADF81200C3
:10542000BDF8460000B2ADF81400BDF8480000B267
:10543000ADF81600BDF84A0000B2ADF81800BDF88E
:105440004C0000B2ADF81A00BDF84E0000B2ADF845
:105450001C00BDF8500000B2ADF81E00BDF85200AF
:1054600000B2ADF82000BDF8540000B2ADF8220043
:10547000BDF8560000B2ADF82400BDF8580000B2E7
:10548000ADF82600BDF85A0000B2ADF82800BDF80E
:105490005C00C0B28DF82A00BDF87000ADF82C0099
:1054A000BDF87200C0B28DF830002E2201A920464E
:1054B00001F0C8FD21B030BD70B5ACB004460D465A
:1054C000502118A801F0D7FD28266846FFF771FF84
:1054D000302269460CA801F0B5FD9DF83000ADF80A
:1054E00060009DF83100ADF862009DF83200ADF823
:1054F0006400BDF83400ADF86600BDF83600ADF8C4
:105500006800BDF8380080B2ADF86A00BDF83A0016
:1055100080B2ADF86C00BDF83C0080B2ADF86E0012
:10552000BDF83E0080B2ADF87000BDF8400080B21A
:10553000ADF87200BDF8420080B2ADF87400BDF85D
:10554000440080B2ADF87600BDF8460080B2ADF8F8
:105550007800BDF8480080B2ADF87A00BDF84A0086
:1055600080B2ADF87C00BDF84C0080B2ADF87E0092
:10557000BDF84E0080B2ADF88000BDF8500080B29A
:10558000ADF88200BDF8520080B2ADF88400BDF8DD
:10559000540080B2ADF88600142C02D1ADF88850CA
:1055A00003E09DF85600ADF888001E2C02D1ADF83E
:1055B0009C5003E0BDF85800ADF89C009DF85C00DD
:1055C000ADF89E00324618A92D48FFF745FE2CB0D5
:1055D00070BD10B5A0B050210CA801F04CFD2824DE
:1055E00001208DF8000007208DF8010000208DF8C3
:1055F00002004FF4FA70ADF8040040F6C410ADF8A4
:1056000006004FF48060ADF808000020ADF80A00F5
:10561000ADF80C002320ADF80E0040F2DC50ADF8E0
:1056200010004FF48060ADF812000020ADF81400B7
:10563000ADF816002320ADF8180040F2DC50ADF8AC
:105640001A004FF48060ADF81C000020ADF81E0079
:10565000ADF820003220ADF8220040F2DC50ADF869
:10566000240000208DF826000B20ADF828000A2029
:105670008DF82C0006E0000000000108A4020020C4
:1056800000FC00089DF80000ADF830009DF8010016
:10569000ADF832009DF80200ADF83400BDF804000A
:1056A000ADF83600BDF80600ADF83800BDF80800CA
:1056B00080B2ADF83A00BDF80A0080B2ADF83C0007
:1056C000BDF80C0080B2ADF83E00BDF80E0080B20F
:1056D000ADF84000BDF8100080B2ADF84200BDF852
:1056E000120080B2ADF84400BDF8140080B2ADF8ED
:1056F0004600BDF8160080B2ADF84800BDF81800AD
:1057000080B2ADF84A00BDF81A0080B2ADF84C0086
:10571000BDF81C0080B2ADF84E00BDF81E0080B28E
:10572000ADF85000BDF8200080B2ADF85200BDF8D1
:10573000220080B2ADF85400BDF8240080B2ADF86C
:1057400056009DF82600ADF85800BDF82800ADF8C9
:105750006C009DF82C00ADF86E0022460CA90248A2
:10576000FFF77AFD20B010BD00FC000808B501214C
:105770000820FCF779FC6846FCF745FAC020ADF834
:10578000000004208DF8030003208DF80200694614
:10579000DA48FCF7ADF908BD00B587B00121042057
:1057A000FCF76FFCD648FCF749FE04A8FDF746FA63
:1057B00043F2B060ADF814000020ADF81000ADF871
:1057C0001600ADF8120004A9CD48FCF70BFF04A9A0
:1057D000CB48FCF707FF0121C948FDF75FFB0A230F
:1057E0001A460321C648FDF70CFB01A8FDF739FA5C
:1057F0000620ADF80C0001A9C148FDF786F901218A
:10580000BF48FDF74BFA07B000BD704710B5FFF772
:10581000ADFFFFF7C1FFFFF7F8FF10BDB84810302C
:10582000008800F0010020B14FF6FE70B44910313D
:10583000088070470146002900DC09B988B270472A
:10584000484280B2FBE72DE9F0470024A14643F22D
:10585000B06AAB48FDF7D9FC0446AA490988611A29
:1058600008B2FFF7E7FF42F21071884212DDA54847
:105870000088844207DDCAF10000A2490988401A65
:1058800000EB04090AE09F480088AAEB000000EB47
:10589000040903E09B480088A4EB000999480480B0
:1058A0009948006A48449849086298480068484402
:1058B000964908600846006801F030FD074600225E
:1058C000934B02F013F8054601F05FFD8F49086025
:1058D00008460068002804DA0846006800F57A6087
:1058E00008608A480068BDE8F087002070472DE90D
:1058F000F0410024002507264FF4487800BF1EE041
:10590000002419E0C4EB0440C11700EB11710F1122
:105910003A460021404600F099FF01E0012000BF17
:105920007C4800680528F9DB7A480068052802DB16
:10593000002078490860641C102CE3DB6D1CB54224
:10594000DEDD00251EE0102419E0C4EB0440C11781
:1059500000EB11710F113A460021404600F076FF2E
:1059600001E0012000BF6B4800680A28F9DB6948A4
:1059700000680A2802DB002066490860641E002CCB
:10598000E3DC6D1CB542DEDD0120BDE8F08170B5C1
:1059900000264FF440444FF47A75224600212846F1
:1059A00000F054FF00E001265A4800686428FADB42
:1059B00058480068642802DB00205649086000202F
:1059C0004F492431088000E00126524800686428CD
:1059D000FADB50480068642802DB00204D4908606B
:1059E00000221146104600F031FF70BD10B500BF17
:1059F000FFF729FF044604EB440000EBC410C00885
:105A00004149C8600846C06810BD2DE9F041002436
:105A1000FFF7ECFF0446C4EBC401480001F08FFC23
:105A2000074600223C4B01F061FF054601F0ADFC4A
:105A30003549C8610846C069BDE8F0812DE9F35FCA
:105A40000F46002500260024A346A046A14643F2A7
:105A5000B06A2B48FDF7D9FB06B230480088301AEF
:105A600004B2032F3ED12D480088301A04B22C48CE
:105A7000844204DA04EB0A000FFA80FB09E042F2E8
:105A80001070844204DDA4EB0A000FFA80FB00E0F2
:105A9000A34624480078032802DD0020214908702D
:105AA00021482049097820F811B01E480078401C90
:105AB0001C490870002505E01B4830F9150080449A
:105AC000681CC5B2042DF7DB4FEAE87108EB917151
:105AD0004FEAA1094FF0000809EB490040F35C00D0
